{
	"Solidity_Notes/Contracts/Notes/03_DataTypes.sol": {
		"dataTyes": {
			"abi": [
				{
					"constant": true,
					"inputs": [],
					"name": "myUint",
					"outputs": [
						{
							"name": "",
							"type": "uint256"
						}
					],
					"payable": false,
					"stateMutability": "view",
					"type": "function"
				},
				{
					"constant": true,
					"inputs": [],
					"name": "myInt",
					"outputs": [
						{
							"name": "",
							"type": "int256"
						}
					],
					"payable": false,
					"stateMutability": "view",
					"type": "function"
				},
				{
					"constant": true,
					"inputs": [],
					"name": "myBool",
					"outputs": [
						{
							"name": "",
							"type": "bool"
						}
					],
					"payable": false,
					"stateMutability": "view",
					"type": "function"
				},
				{
					"constant": true,
					"inputs": [],
					"name": "stringValue",
					"outputs": [
						{
							"name": "",
							"type": "string"
						}
					],
					"payable": false,
					"stateMutability": "view",
					"type": "function"
				},
				{
					"constant": true,
					"inputs": [
						{
							"name": "",
							"type": "uint256"
						}
					],
					"name": "set1",
					"outputs": [
						{
							"name": "",
							"type": "int256"
						}
					],
					"payable": false,
					"stateMutability": "view",
					"type": "function"
				},
				{
					"constant": true,
					"inputs": [],
					"name": "myUint8",
					"outputs": [
						{
							"name": "",
							"type": "uint8"
						}
					],
					"payable": false,
					"stateMutability": "view",
					"type": "function"
				}
			],
			"devdoc": {
				"methods": {}
			},
			"evm": {
				"assembly": "    /* \"Solidity_Notes/Contracts/Notes/03_DataTypes.sol\":26:386  contract dataTyes{\r... */\n  mstore(0x40, 0x80)\n    /* \"Solidity_Notes/Contracts/Notes/03_DataTypes.sol\":125:129  true */\n  0x1\n    /* \"Solidity_Notes/Contracts/Notes/03_DataTypes.sol\":104:129  bool public myBool = true */\n  0x0\n  dup1\n  0x100\n  exp\n  dup2\n  sload\n  dup2\n  0xff\n  mul\n  not\n  and\n  swap1\n  dup4\n  iszero\n  iszero\n  mul\n  or\n  swap1\n  sstore\n  pop\n    /* \"Solidity_Notes/Contracts/Notes/03_DataTypes.sol\":155:157  -1 */\n  0xffffffffffffffffffffffffffffffffffffffffffffffffffffffffffffffff\n    /* \"Solidity_Notes/Contracts/Notes/03_DataTypes.sol\":136:157  int public myInt = -1 */\n  0x1\n  sstore\n    /* \"Solidity_Notes/Contracts/Notes/03_DataTypes.sol\":185:186  1 */\n  0x1\n    /* \"Solidity_Notes/Contracts/Notes/03_DataTypes.sol\":164:186  uint public myUint = 1 */\n  0x2\n  sstore\n    /* \"Solidity_Notes/Contracts/Notes/03_DataTypes.sol\":237:240  255 */\n  0xff\n    /* \"Solidity_Notes/Contracts/Notes/03_DataTypes.sol\":214:240  uint8 public myUint8 = 255 */\n  0x3\n  exp(0x100, 0x0)\n  dup2\n  sload\n  dup2\n  0xff\n  mul\n  not\n  and\n  swap1\n  dup4\n  0xff\n  and\n  mul\n  or\n  swap1\n  sstore\n  pop\n    /* \"Solidity_Notes/Contracts/Notes/03_DataTypes.sol\":294:322  int[] public set1 = [1,23,4] */\n  0x60\n  mload(0x40)\n  swap1\n  dup2\n  add\n  0x40\n  mstore\n  dup1\n    /* \"Solidity_Notes/Contracts/Notes/03_DataTypes.sol\":315:316  1 */\n  0x1\n    /* \"Solidity_Notes/Contracts/Notes/03_DataTypes.sol\":294:322  int[] public set1 = [1,23,4] */\n  0xff\n  and\n  dup2\n  mstore\n  0x20\n  add\n    /* \"Solidity_Notes/Contracts/Notes/03_DataTypes.sol\":317:319  23 */\n  0x17\n    /* \"Solidity_Notes/Contracts/Notes/03_DataTypes.sol\":294:322  int[] public set1 = [1,23,4] */\n  0xff\n  and\n  dup2\n  mstore\n  0x20\n  add\n    /* \"Solidity_Notes/Contracts/Notes/03_DataTypes.sol\":320:321  4 */\n  0x4\n    /* \"Solidity_Notes/Contracts/Notes/03_DataTypes.sol\":294:322  int[] public set1 = [1,23,4] */\n  0xff\n  and\n  dup2\n  mstore\n  pop\n  0x4\n  swap1\n  0x3\n  tag_1\n  swap3\n  swap2\n  swap1\n  tag_2\n  jump\t// in\ntag_1:\n  pop\n    /* \"Solidity_Notes/Contracts/Notes/03_DataTypes.sol\":26:386  contract dataTyes{\r... */\n  callvalue\n    /* \"--CODEGEN--\":8:17   */\n  dup1\n    /* \"--CODEGEN--\":5:7   */\n  iszero\n  tag_3\n  jumpi\n    /* \"--CODEGEN--\":30:31   */\n  0x0\n    /* \"--CODEGEN--\":27:28   */\n  dup1\n    /* \"--CODEGEN--\":20:32   */\n  revert\n    /* \"--CODEGEN--\":5:7   */\ntag_3:\n    /* \"Solidity_Notes/Contracts/Notes/03_DataTypes.sol\":26:386  contract dataTyes{\r... */\n  pop\n  jump(tag_4)\ntag_2:\n  dup3\n  dup1\n  sload\n  dup3\n  dup3\n  sstore\n  swap1\n  0x0\n  mstore\n  keccak256(0x0, 0x20)\n  swap1\n  dup2\n  add\n  swap3\n  dup3\n  iszero\n  tag_5\n  jumpi\n  swap2\n  0x20\n  mul\n  dup3\n  add\ntag_6:\n  dup3\n  dup2\n  gt\n  iszero\n  tag_7\n  jumpi\n  dup3\n  mload\n  dup3\n  swap1\n  0xff\n  and\n  swap1\n  sstore\n  swap2\n  0x20\n  add\n  swap2\n  swap1\n  0x1\n  add\n  swap1\n  jump(tag_6)\ntag_7:\ntag_5:\n  pop\n  swap1\n  pop\n  tag_8\n  swap2\n  swap1\n  tag_9\n  jump\t// in\ntag_8:\n  pop\n  swap1\n  jump\t// out\ntag_9:\n  tag_10\n  swap2\n  swap1\ntag_11:\n  dup1\n  dup3\n  gt\n  iszero\n  tag_12\n  jumpi\n  0x0\n  dup2\n  0x0\n  swap1\n  sstore\n  pop\n  0x1\n  add\n  jump(tag_11)\ntag_12:\n  pop\n  swap1\n  jump\ntag_10:\n  swap1\n  jump\t// out\ntag_4:\n  dataSize(sub_0)\n  dup1\n  dataOffset(sub_0)\n  0x0\n  codecopy\n  0x0\n  return\nstop\n\nsub_0: assembly {\n        /* \"Solidity_Notes/Contracts/Notes/03_DataTypes.sol\":26:386  contract dataTyes{\r... */\n      mstore(0x40, 0x80)\n      jumpi(tag_1, lt(calldatasize, 0x4))\n      calldataload(0x0)\n      0x100000000000000000000000000000000000000000000000000000000\n      swap1\n      div\n      dup1\n      0x6540f7e\n      eq\n      tag_2\n      jumpi\n      dup1\n      0x2cb777a6\n      eq\n      tag_3\n      jumpi\n      dup1\n      0x6deecdbe\n      eq\n      tag_4\n      jumpi\n      dup1\n      0x7dc93929\n      eq\n      tag_5\n      jumpi\n      dup1\n      0x9bc39d3c\n      eq\n      tag_6\n      jumpi\n      dup1\n      0xe2a4b2af\n      eq\n      tag_7\n      jumpi\n    tag_1:\n      0x0\n      dup1\n      revert\n        /* \"Solidity_Notes/Contracts/Notes/03_DataTypes.sol\":164:186  uint public myUint = 1 */\n    tag_2:\n      callvalue\n        /* \"--CODEGEN--\":8:17   */\n      dup1\n        /* \"--CODEGEN--\":5:7   */\n      iszero\n      tag_8\n      jumpi\n        /* \"--CODEGEN--\":30:31   */\n      0x0\n        /* \"--CODEGEN--\":27:28   */\n      dup1\n        /* \"--CODEGEN--\":20:32   */\n      revert\n        /* \"--CODEGEN--\":5:7   */\n    tag_8:\n        /* \"Solidity_Notes/Contracts/Notes/03_DataTypes.sol\":164:186  uint public myUint = 1 */\n      pop\n      tag_9\n      tag_10\n      jump\t// in\n    tag_9:\n      mload(0x40)\n      dup1\n      dup3\n      dup2\n      mstore\n      0x20\n      add\n      swap2\n      pop\n      pop\n      mload(0x40)\n      dup1\n      swap2\n      sub\n      swap1\n      return\n        /* \"Solidity_Notes/Contracts/Notes/03_DataTypes.sol\":136:157  int public myInt = -1 */\n    tag_3:\n      callvalue\n        /* \"--CODEGEN--\":8:17   */\n      dup1\n        /* \"--CODEGEN--\":5:7   */\n      iszero\n      tag_11\n      jumpi\n        /* \"--CODEGEN--\":30:31   */\n      0x0\n        /* \"--CODEGEN--\":27:28   */\n      dup1\n        /* \"--CODEGEN--\":20:32   */\n      revert\n        /* \"--CODEGEN--\":5:7   */\n    tag_11:\n        /* \"Solidity_Notes/Contracts/Notes/03_DataTypes.sol\":136:157  int public myInt = -1 */\n      pop\n      tag_12\n      tag_13\n      jump\t// in\n    tag_12:\n      mload(0x40)\n      dup1\n      dup3\n      dup2\n      mstore\n      0x20\n      add\n      swap2\n      pop\n      pop\n      mload(0x40)\n      dup1\n      swap2\n      sub\n      swap1\n      return\n        /* \"Solidity_Notes/Contracts/Notes/03_DataTypes.sol\":104:129  bool public myBool = true */\n    tag_4:\n      callvalue\n        /* \"--CODEGEN--\":8:17   */\n      dup1\n        /* \"--CODEGEN--\":5:7   */\n      iszero\n      tag_14\n      jumpi\n        /* \"--CODEGEN--\":30:31   */\n      0x0\n        /* \"--CODEGEN--\":27:28   */\n      dup1\n        /* \"--CODEGEN--\":20:32   */\n      revert\n        /* \"--CODEGEN--\":5:7   */\n    tag_14:\n        /* \"Solidity_Notes/Contracts/Notes/03_DataTypes.sol\":104:129  bool public myBool = true */\n      pop\n      tag_15\n      tag_16\n      jump\t// in\n    tag_15:\n      mload(0x40)\n      dup1\n      dup3\n      iszero\n      iszero\n      iszero\n      iszero\n      dup2\n      mstore\n      0x20\n      add\n      swap2\n      pop\n      pop\n      mload(0x40)\n      dup1\n      swap2\n      sub\n      swap1\n      return\n        /* \"Solidity_Notes/Contracts/Notes/03_DataTypes.sol\":50:97  string public constant stringValue = \"mtString\" */\n    tag_5:\n      callvalue\n        /* \"--CODEGEN--\":8:17   */\n      dup1\n        /* \"--CODEGEN--\":5:7   */\n      iszero\n      tag_17\n      jumpi\n        /* \"--CODEGEN--\":30:31   */\n      0x0\n        /* \"--CODEGEN--\":27:28   */\n      dup1\n        /* \"--CODEGEN--\":20:32   */\n      revert\n        /* \"--CODEGEN--\":5:7   */\n    tag_17:\n        /* \"Solidity_Notes/Contracts/Notes/03_DataTypes.sol\":50:97  string public constant stringValue = \"mtString\" */\n      pop\n      tag_18\n      tag_19\n      jump\t// in\n    tag_18:\n      mload(0x40)\n      dup1\n      dup1\n      0x20\n      add\n      dup3\n      dup2\n      sub\n      dup3\n      mstore\n      dup4\n      dup2\n      dup2\n      mload\n      dup2\n      mstore\n      0x20\n      add\n      swap2\n      pop\n      dup1\n      mload\n      swap1\n      0x20\n      add\n      swap1\n      dup1\n      dup4\n      dup4\n        /* \"--CODEGEN--\":23:24   */\n      0x0\n        /* \"--CODEGEN--\":8:108   */\n    tag_20:\n        /* \"--CODEGEN--\":33:36   */\n      dup4\n        /* \"--CODEGEN--\":30:31   */\n      dup2\n        /* \"--CODEGEN--\":27:37   */\n      lt\n        /* \"--CODEGEN--\":8:108   */\n      iszero\n      tag_21\n      jumpi\n        /* \"--CODEGEN--\":99:100   */\n      dup1\n        /* \"--CODEGEN--\":94:97   */\n      dup3\n        /* \"--CODEGEN--\":90:101   */\n      add\n        /* \"--CODEGEN--\":84:102   */\n      mload\n        /* \"--CODEGEN--\":80:81   */\n      dup2\n        /* \"--CODEGEN--\":75:78   */\n      dup5\n        /* \"--CODEGEN--\":71:82   */\n      add\n        /* \"--CODEGEN--\":64:103   */\n      mstore\n        /* \"--CODEGEN--\":52:54   */\n      0x20\n        /* \"--CODEGEN--\":49:50   */\n      dup2\n        /* \"--CODEGEN--\":45:55   */\n      add\n        /* \"--CODEGEN--\":40:55   */\n      swap1\n      pop\n        /* \"--CODEGEN--\":8:108   */\n      jump(tag_20)\n    tag_21:\n        /* \"--CODEGEN--\":12:26   */\n      pop\n        /* \"Solidity_Notes/Contracts/Notes/03_DataTypes.sol\":50:97  string public constant stringValue = \"mtString\" */\n      pop\n      pop\n      pop\n      swap1\n      pop\n      swap1\n      dup2\n      add\n      swap1\n      0x1f\n      and\n      dup1\n      iszero\n      tag_23\n      jumpi\n      dup1\n      dup3\n      sub\n      dup1\n      mload\n      0x1\n      dup4\n      0x20\n      sub\n      0x100\n      exp\n      sub\n      not\n      and\n      dup2\n      mstore\n      0x20\n      add\n      swap2\n      pop\n    tag_23:\n      pop\n      swap3\n      pop\n      pop\n      pop\n      mload(0x40)\n      dup1\n      swap2\n      sub\n      swap1\n      return\n        /* \"Solidity_Notes/Contracts/Notes/03_DataTypes.sol\":294:322  int[] public set1 = [1,23,4] */\n    tag_6:\n      callvalue\n        /* \"--CODEGEN--\":8:17   */\n      dup1\n        /* \"--CODEGEN--\":5:7   */\n      iszero\n      tag_24\n      jumpi\n        /* \"--CODEGEN--\":30:31   */\n      0x0\n        /* \"--CODEGEN--\":27:28   */\n      dup1\n        /* \"--CODEGEN--\":20:32   */\n      revert\n        /* \"--CODEGEN--\":5:7   */\n    tag_24:\n        /* \"Solidity_Notes/Contracts/Notes/03_DataTypes.sol\":294:322  int[] public set1 = [1,23,4] */\n      pop\n      tag_25\n      0x4\n      dup1\n      calldatasize\n      sub\n        /* \"--CODEGEN--\":13:15   */\n      0x20\n        /* \"--CODEGEN--\":8:11   */\n      dup2\n        /* \"--CODEGEN--\":5:16   */\n      lt\n        /* \"--CODEGEN--\":2:4   */\n      iszero\n      tag_26\n      jumpi\n        /* \"--CODEGEN--\":29:30   */\n      0x0\n        /* \"--CODEGEN--\":26:27   */\n      dup1\n        /* \"--CODEGEN--\":19:31   */\n      revert\n        /* \"--CODEGEN--\":2:4   */\n    tag_26:\n        /* \"Solidity_Notes/Contracts/Notes/03_DataTypes.sol\":294:322  int[] public set1 = [1,23,4] */\n      dup2\n      add\n      swap1\n      dup1\n      dup1\n      calldataload\n      swap1\n      0x20\n      add\n      swap1\n      swap3\n      swap2\n      swap1\n      pop\n      pop\n      pop\n      tag_27\n      jump\t// in\n    tag_25:\n      mload(0x40)\n      dup1\n      dup3\n      dup2\n      mstore\n      0x20\n      add\n      swap2\n      pop\n      pop\n      mload(0x40)\n      dup1\n      swap2\n      sub\n      swap1\n      return\n        /* \"Solidity_Notes/Contracts/Notes/03_DataTypes.sol\":214:240  uint8 public myUint8 = 255 */\n    tag_7:\n      callvalue\n        /* \"--CODEGEN--\":8:17   */\n      dup1\n        /* \"--CODEGEN--\":5:7   */\n      iszero\n      tag_28\n      jumpi\n        /* \"--CODEGEN--\":30:31   */\n      0x0\n        /* \"--CODEGEN--\":27:28   */\n      dup1\n        /* \"--CODEGEN--\":20:32   */\n      revert\n        /* \"--CODEGEN--\":5:7   */\n    tag_28:\n        /* \"Solidity_Notes/Contracts/Notes/03_DataTypes.sol\":214:240  uint8 public myUint8 = 255 */\n      pop\n      tag_29\n      tag_30\n      jump\t// in\n    tag_29:\n      mload(0x40)\n      dup1\n      dup3\n      0xff\n      and\n      0xff\n      and\n      dup2\n      mstore\n      0x20\n      add\n      swap2\n      pop\n      pop\n      mload(0x40)\n      dup1\n      swap2\n      sub\n      swap1\n      return\n        /* \"Solidity_Notes/Contracts/Notes/03_DataTypes.sol\":164:186  uint public myUint = 1 */\n    tag_10:\n      sload(0x2)\n      dup2\n      jump\t// out\n        /* \"Solidity_Notes/Contracts/Notes/03_DataTypes.sol\":136:157  int public myInt = -1 */\n    tag_13:\n      sload(0x1)\n      dup2\n      jump\t// out\n        /* \"Solidity_Notes/Contracts/Notes/03_DataTypes.sol\":104:129  bool public myBool = true */\n    tag_16:\n      0x0\n      dup1\n      swap1\n      sload\n      swap1\n      0x100\n      exp\n      swap1\n      div\n      0xff\n      and\n      dup2\n      jump\t// out\n        /* \"Solidity_Notes/Contracts/Notes/03_DataTypes.sol\":50:97  string public constant stringValue = \"mtString\" */\n    tag_19:\n      0x40\n      dup1\n      mload\n      swap1\n      dup2\n      add\n      0x40\n      mstore\n      dup1\n      0x8\n      dup2\n      mstore\n      0x20\n      add\n      0x6d74537472696e67000000000000000000000000000000000000000000000000\n      dup2\n      mstore\n      pop\n      dup2\n      jump\t// out\n        /* \"Solidity_Notes/Contracts/Notes/03_DataTypes.sol\":294:322  int[] public set1 = [1,23,4] */\n    tag_27:\n      0x4\n      dup2\n      dup2\n      sload\n      dup2\n      lt\n      iszero\n      iszero\n      tag_31\n      jumpi\n      invalid\n    tag_31:\n      swap1\n      0x0\n      mstore\n      keccak256(0x0, 0x20)\n      add\n      0x0\n      swap2\n      pop\n      swap1\n      pop\n      sload\n      dup2\n      jump\t// out\n        /* \"Solidity_Notes/Contracts/Notes/03_DataTypes.sol\":214:240  uint8 public myUint8 = 255 */\n    tag_30:\n      0x3\n      0x0\n      swap1\n      sload\n      swap1\n      0x100\n      exp\n      swap1\n      div\n      0xff\n      and\n      dup2\n      jump\t// out\n\n    auxdata: 0xa165627a7a7230582013e0090fc2acbdbc9558dee409f6402b027ad9b17d331c74f8a971559bde8b4b0029\n}\n",
				"bytecode": {
					"linkReferences": {},
					"object": "608060405260016000806101000a81548160ff0219169083151502179055507fffffffffffffffffffffffffffffffffffffffffffffffffffffffffffffffff600155600160025560ff600360006101000a81548160ff021916908360ff160217905550606060405190810160405280600160ff168152602001601760ff168152602001600460ff16815250600490600361009b9291906100ae565b503480156100a857600080fd5b50610125565b8280548282559060005260206000209081019282156100ef579160200282015b828111156100ee578251829060ff169055916020019190600101906100ce565b5b5090506100fc9190610100565b5090565b61012291905b8082111561011e576000816000905550600101610106565b5090565b90565b6102c5806101346000396000f3fe608060405260043610610072576000357c01000000000000000000000000000000000000000000000000000000009004806306540f7e146100775780632cb777a6146100a25780636deecdbe146100cd5780637dc93929146100fc5780639bc39d3c1461018c578063e2a4b2af146101db575b600080fd5b34801561008357600080fd5b5061008c61020c565b6040518082815260200191505060405180910390f35b3480156100ae57600080fd5b506100b7610212565b6040518082815260200191505060405180910390f35b3480156100d957600080fd5b506100e2610218565b604051808215151515815260200191505060405180910390f35b34801561010857600080fd5b5061011161022a565b6040518080602001828103825283818151815260200191508051906020019080838360005b83811015610151578082015181840152602081019050610136565b50505050905090810190601f16801561017e5780820380516001836020036101000a031916815260200191505b509250505060405180910390f35b34801561019857600080fd5b506101c5600480360360208110156101af57600080fd5b8101908080359060200190929190505050610263565b6040518082815260200191505060405180910390f35b3480156101e757600080fd5b506101f0610286565b604051808260ff1660ff16815260200191505060405180910390f35b60025481565b60015481565b6000809054906101000a900460ff1681565b6040805190810160405280600881526020017f6d74537472696e6700000000000000000000000000000000000000000000000081525081565b60048181548110151561027257fe5b906000526020600020016000915090505481565b600360009054906101000a900460ff168156fea165627a7a7230582013e0090fc2acbdbc9558dee409f6402b027ad9b17d331c74f8a971559bde8b4b0029",
					"opcodes": "PUSH1 0x80 PUSH1 0x40 MSTORE PUSH1 0x1 PUSH1 0x0 DUP1 PUSH2 0x100 EXP DUP2 SLOAD DUP2 PUSH1 0xFF MUL NOT AND SWAP1 DUP4 ISZERO ISZERO MUL OR SWAP1 SSTORE POP PUSH32 0xFFFFFFFFFFFFFFFFFFFFFFFFFFFFFFFFFFFFFFFFFFFFFFFFFFFFFFFFFFFFFFFF PUSH1 0x1 SSTORE PUSH1 0x1 PUSH1 0x2 SSTORE PUSH1 0xFF PUSH1 0x3 PUSH1 0x0 PUSH2 0x100 EXP DUP2 SLOAD DUP2 PUSH1 0xFF MUL NOT AND SWAP1 DUP4 PUSH1 0xFF AND MUL OR SWAP1 SSTORE POP PUSH1 0x60 PUSH1 0x40 MLOAD SWAP1 DUP2 ADD PUSH1 0x40 MSTORE DUP1 PUSH1 0x1 PUSH1 0xFF AND DUP2 MSTORE PUSH1 0x20 ADD PUSH1 0x17 PUSH1 0xFF AND DUP2 MSTORE PUSH1 0x20 ADD PUSH1 0x4 PUSH1 0xFF AND DUP2 MSTORE POP PUSH1 0x4 SWAP1 PUSH1 0x3 PUSH2 0x9B SWAP3 SWAP2 SWAP1 PUSH2 0xAE JUMP JUMPDEST POP CALLVALUE DUP1 ISZERO PUSH2 0xA8 JUMPI PUSH1 0x0 DUP1 REVERT JUMPDEST POP PUSH2 0x125 JUMP JUMPDEST DUP3 DUP1 SLOAD DUP3 DUP3 SSTORE SWAP1 PUSH1 0x0 MSTORE PUSH1 0x20 PUSH1 0x0 KECCAK256 SWAP1 DUP2 ADD SWAP3 DUP3 ISZERO PUSH2 0xEF JUMPI SWAP2 PUSH1 0x20 MUL DUP3 ADD JUMPDEST DUP3 DUP2 GT ISZERO PUSH2 0xEE JUMPI DUP3 MLOAD DUP3 SWAP1 PUSH1 0xFF AND SWAP1 SSTORE SWAP2 PUSH1 0x20 ADD SWAP2 SWAP1 PUSH1 0x1 ADD SWAP1 PUSH2 0xCE JUMP JUMPDEST JUMPDEST POP SWAP1 POP PUSH2 0xFC SWAP2 SWAP1 PUSH2 0x100 JUMP JUMPDEST POP SWAP1 JUMP JUMPDEST PUSH2 0x122 SWAP2 SWAP1 JUMPDEST DUP1 DUP3 GT ISZERO PUSH2 0x11E JUMPI PUSH1 0x0 DUP2 PUSH1 0x0 SWAP1 SSTORE POP PUSH1 0x1 ADD PUSH2 0x106 JUMP JUMPDEST POP SWAP1 JUMP JUMPDEST SWAP1 JUMP JUMPDEST PUSH2 0x2C5 DUP1 PUSH2 0x134 PUSH1 0x0 CODECOPY PUSH1 0x0 RETURN INVALID PUSH1 0x80 PUSH1 0x40 MSTORE PUSH1 0x4 CALLDATASIZE LT PUSH2 0x72 JUMPI PUSH1 0x0 CALLDATALOAD PUSH29 0x100000000000000000000000000000000000000000000000000000000 SWAP1 DIV DUP1 PUSH4 0x6540F7E EQ PUSH2 0x77 JUMPI DUP1 PUSH4 0x2CB777A6 EQ PUSH2 0xA2 JUMPI DUP1 PUSH4 0x6DEECDBE EQ PUSH2 0xCD JUMPI DUP1 PUSH4 0x7DC93929 EQ PUSH2 0xFC JUMPI DUP1 PUSH4 0x9BC39D3C EQ PUSH2 0x18C JUMPI DUP1 PUSH4 0xE2A4B2AF EQ PUSH2 0x1DB JUMPI JUMPDEST PUSH1 0x0 DUP1 REVERT JUMPDEST CALLVALUE DUP1 ISZERO PUSH2 0x83 JUMPI PUSH1 0x0 DUP1 REVERT JUMPDEST POP PUSH2 0x8C PUSH2 0x20C JUMP JUMPDEST PUSH1 0x40 MLOAD DUP1 DUP3 DUP2 MSTORE PUSH1 0x20 ADD SWAP2 POP POP PUSH1 0x40 MLOAD DUP1 SWAP2 SUB SWAP1 RETURN JUMPDEST CALLVALUE DUP1 ISZERO PUSH2 0xAE JUMPI PUSH1 0x0 DUP1 REVERT JUMPDEST POP PUSH2 0xB7 PUSH2 0x212 JUMP JUMPDEST PUSH1 0x40 MLOAD DUP1 DUP3 DUP2 MSTORE PUSH1 0x20 ADD SWAP2 POP POP PUSH1 0x40 MLOAD DUP1 SWAP2 SUB SWAP1 RETURN JUMPDEST CALLVALUE DUP1 ISZERO PUSH2 0xD9 JUMPI PUSH1 0x0 DUP1 REVERT JUMPDEST POP PUSH2 0xE2 PUSH2 0x218 JUMP JUMPDEST PUSH1 0x40 MLOAD DUP1 DUP3 ISZERO ISZERO ISZERO ISZERO DUP2 MSTORE PUSH1 0x20 ADD SWAP2 POP POP PUSH1 0x40 MLOAD DUP1 SWAP2 SUB SWAP1 RETURN JUMPDEST CALLVALUE DUP1 ISZERO PUSH2 0x108 JUMPI PUSH1 0x0 DUP1 REVERT JUMPDEST POP PUSH2 0x111 PUSH2 0x22A JUMP JUMPDEST PUSH1 0x40 MLOAD DUP1 DUP1 PUSH1 0x20 ADD DUP3 DUP2 SUB DUP3 MSTORE DUP4 DUP2 DUP2 MLOAD DUP2 MSTORE PUSH1 0x20 ADD SWAP2 POP DUP1 MLOAD SWAP1 PUSH1 0x20 ADD SWAP1 DUP1 DUP4 DUP4 PUSH1 0x0 JUMPDEST DUP4 DUP2 LT ISZERO PUSH2 0x151 JUMPI DUP1 DUP3 ADD MLOAD DUP2 DUP5 ADD MSTORE PUSH1 0x20 DUP2 ADD SWAP1 POP PUSH2 0x136 JUMP JUMPDEST POP POP POP POP SWAP1 POP SWAP1 DUP2 ADD SWAP1 PUSH1 0x1F AND DUP1 ISZERO PUSH2 0x17E JUMPI DUP1 DUP3 SUB DUP1 MLOAD PUSH1 0x1 DUP4 PUSH1 0x20 SUB PUSH2 0x100 EXP SUB NOT AND DUP2 MSTORE PUSH1 0x20 ADD SWAP2 POP JUMPDEST POP SWAP3 POP POP POP PUSH1 0x40 MLOAD DUP1 SWAP2 SUB SWAP1 RETURN JUMPDEST CALLVALUE DUP1 ISZERO PUSH2 0x198 JUMPI PUSH1 0x0 DUP1 REVERT JUMPDEST POP PUSH2 0x1C5 PUSH1 0x4 DUP1 CALLDATASIZE SUB PUSH1 0x20 DUP2 LT ISZERO PUSH2 0x1AF JUMPI PUSH1 0x0 DUP1 REVERT JUMPDEST DUP2 ADD SWAP1 DUP1 DUP1 CALLDATALOAD SWAP1 PUSH1 0x20 ADD SWAP1 SWAP3 SWAP2 SWAP1 POP POP POP PUSH2 0x263 JUMP JUMPDEST PUSH1 0x40 MLOAD DUP1 DUP3 DUP2 MSTORE PUSH1 0x20 ADD SWAP2 POP POP PUSH1 0x40 MLOAD DUP1 SWAP2 SUB SWAP1 RETURN JUMPDEST CALLVALUE DUP1 ISZERO PUSH2 0x1E7 JUMPI PUSH1 0x0 DUP1 REVERT JUMPDEST POP PUSH2 0x1F0 PUSH2 0x286 JUMP JUMPDEST PUSH1 0x40 MLOAD DUP1 DUP3 PUSH1 0xFF AND PUSH1 0xFF AND DUP2 MSTORE PUSH1 0x20 ADD SWAP2 POP POP PUSH1 0x40 MLOAD DUP1 SWAP2 SUB SWAP1 RETURN JUMPDEST PUSH1 0x2 SLOAD DUP2 JUMP JUMPDEST PUSH1 0x1 SLOAD DUP2 JUMP JUMPDEST PUSH1 0x0 DUP1 SWAP1 SLOAD SWAP1 PUSH2 0x100 EXP SWAP1 DIV PUSH1 0xFF AND DUP2 JUMP JUMPDEST PUSH1 0x40 DUP1 MLOAD SWAP1 DUP2 ADD PUSH1 0x40 MSTORE DUP1 PUSH1 0x8 DUP2 MSTORE PUSH1 0x20 ADD PUSH32 0x6D74537472696E67000000000000000000000000000000000000000000000000 DUP2 MSTORE POP DUP2 JUMP JUMPDEST PUSH1 0x4 DUP2 DUP2 SLOAD DUP2 LT ISZERO ISZERO PUSH2 0x272 JUMPI INVALID JUMPDEST SWAP1 PUSH1 0x0 MSTORE PUSH1 0x20 PUSH1 0x0 KECCAK256 ADD PUSH1 0x0 SWAP2 POP SWAP1 POP SLOAD DUP2 JUMP JUMPDEST PUSH1 0x3 PUSH1 0x0 SWAP1 SLOAD SWAP1 PUSH2 0x100 EXP SWAP1 DIV PUSH1 0xFF AND DUP2 JUMP INVALID LOG1 PUSH6 0x627A7A723058 KECCAK256 SGT 0xe0 MULMOD 0xf 0xc2 0xac 0xbd 0xbc SWAP6 PC 0xde 0xe4 MULMOD 0xf6 BLOCKHASH 0x2b MUL PUSH27 0xD9B17D331C74F8A971559BDE8B4B00290000000000000000000000 "
				},
				"gasEstimates": {
					"creation": {
						"codeDepositCost": "141800",
						"executionCost": "infinite",
						"totalCost": "infinite"
					},
					"external": {
						"myBool()": "480",
						"myInt()": "410",
						"myUint()": "388",
						"myUint8()": "546",
						"set1(uint256)": "857",
						"stringValue()": "infinite"
					}
				},
				"methodIdentifiers": {
					"myBool()": "6deecdbe",
					"myInt()": "2cb777a6",
					"myUint()": "06540f7e",
					"myUint8()": "e2a4b2af",
					"set1(uint256)": "9bc39d3c",
					"stringValue()": "7dc93929"
				}
			},
			"userdoc": {
				"methods": {}
			}
		}
	}
}