{
	"Solidity_Notes/Contracts/Notes/04_Enums.sol": {
		"enumeratedList": {
			"abi": [
				{
					"constant": false,
					"inputs": [],
					"name": "activate",
					"outputs": [],
					"payable": false,
					"stateMutability": "nonpayable",
					"type": "function"
				},
				{
					"constant": true,
					"inputs": [],
					"name": "isActive",
					"outputs": [
						{
							"name": "",
							"type": "bool"
						}
					],
					"payable": false,
					"stateMutability": "view",
					"type": "function"
				},
				{
					"constant": false,
					"inputs": [],
					"name": "deactivate",
					"outputs": [],
					"payable": false,
					"stateMutability": "nonpayable",
					"type": "function"
				},
				{
					"constant": true,
					"inputs": [],
					"name": "state",
					"outputs": [
						{
							"name": "",
							"type": "uint8"
						}
					],
					"payable": false,
					"stateMutability": "view",
					"type": "function"
				},
				{
					"constant": true,
					"inputs": [],
					"name": "resultState",
					"outputs": [
						{
							"name": "",
							"type": "uint8"
						}
					],
					"payable": false,
					"stateMutability": "view",
					"type": "function"
				},
				{
					"inputs": [],
					"payable": false,
					"stateMutability": "nonpayable",
					"type": "constructor"
				}
			],
			"devdoc": {
				"methods": {}
			},
			"evm": {
				"assembly": "    /* \"Solidity_Notes/Contracts/Notes/04_Enums.sol\":26:613  contract enumeratedList{\r... */\n  mstore(0x40, 0x80)\n    /* \"Solidity_Notes/Contracts/Notes/04_Enums.sol\":256:359  constructor() public{\r... */\n  callvalue\n    /* \"--CODEGEN--\":8:17   */\n  dup1\n    /* \"--CODEGEN--\":5:7   */\n  iszero\n  tag_1\n  jumpi\n    /* \"--CODEGEN--\":30:31   */\n  0x0\n    /* \"--CODEGEN--\":27:28   */\n  dup1\n    /* \"--CODEGEN--\":20:32   */\n  revert\n    /* \"--CODEGEN--\":5:7   */\ntag_1:\n    /* \"Solidity_Notes/Contracts/Notes/04_Enums.sol\":256:359  constructor() public{\r... */\n  pop\n    /* \"Solidity_Notes/Contracts/Notes/04_Enums.sol\":295:308  State.Waiting */\n  0x0\n    /* \"Solidity_Notes/Contracts/Notes/04_Enums.sol\":287:292  state */\n  dup1\n  0x0\n    /* \"Solidity_Notes/Contracts/Notes/04_Enums.sol\":287:308  state = State.Waiting */\n  0x100\n  exp\n  dup2\n  sload\n  dup2\n  0xff\n  mul\n  not\n  and\n  swap1\n  dup4\n  0x2\n  dup2\n  gt\n  iszero\n  tag_4\n  jumpi\n  invalid\ntag_4:\n  mul\n  or\n  swap1\n  sstore\n  pop\n    /* \"Solidity_Notes/Contracts/Notes/04_Enums.sol\":336:348  State.Active */\n  0x2\n    /* \"Solidity_Notes/Contracts/Notes/04_Enums.sol\":322:333  resultState */\n  0x0\n  0x1\n    /* \"Solidity_Notes/Contracts/Notes/04_Enums.sol\":322:348  resultState = State.Active */\n  0x100\n  exp\n  dup2\n  sload\n  dup2\n  0xff\n  mul\n  not\n  and\n  swap1\n  dup4\n  0x2\n  dup2\n  gt\n  iszero\n  tag_5\n  jumpi\n  invalid\ntag_5:\n  mul\n  or\n  swap1\n  sstore\n  pop\n    /* \"Solidity_Notes/Contracts/Notes/04_Enums.sol\":26:613  contract enumeratedList{\r... */\n  dataSize(sub_0)\n  dup1\n  dataOffset(sub_0)\n  0x0\n  codecopy\n  0x0\n  return\nstop\n\nsub_0: assembly {\n        /* \"Solidity_Notes/Contracts/Notes/04_Enums.sol\":26:613  contract enumeratedList{\r... */\n      mstore(0x40, 0x80)\n      jumpi(tag_1, lt(calldatasize, 0x4))\n      calldataload(0x0)\n      0x100000000000000000000000000000000000000000000000000000000\n      swap1\n      div\n      dup1\n      0xf15f4c0\n      eq\n      tag_2\n      jumpi\n      dup1\n      0x22f3e2d4\n      eq\n      tag_3\n      jumpi\n      dup1\n      0x51b42b00\n      eq\n      tag_4\n      jumpi\n      dup1\n      0xc19d93fb\n      eq\n      tag_5\n      jumpi\n      dup1\n      0xde6428af\n      eq\n      tag_6\n      jumpi\n    tag_1:\n      0x0\n      dup1\n      revert\n        /* \"Solidity_Notes/Contracts/Notes/04_Enums.sol\":367:432  function activate() public{\r... */\n    tag_2:\n      callvalue\n        /* \"--CODEGEN--\":8:17   */\n      dup1\n        /* \"--CODEGEN--\":5:7   */\n      iszero\n      tag_7\n      jumpi\n        /* \"--CODEGEN--\":30:31   */\n      0x0\n        /* \"--CODEGEN--\":27:28   */\n      dup1\n        /* \"--CODEGEN--\":20:32   */\n      revert\n        /* \"--CODEGEN--\":5:7   */\n    tag_7:\n        /* \"Solidity_Notes/Contracts/Notes/04_Enums.sol\":367:432  function activate() public{\r... */\n      pop\n      tag_8\n      tag_9\n      jump\t// in\n    tag_8:\n      stop\n        /* \"Solidity_Notes/Contracts/Notes/04_Enums.sol\":516:608  function isActive() public view returns(bool){\r... */\n    tag_3:\n      callvalue\n        /* \"--CODEGEN--\":8:17   */\n      dup1\n        /* \"--CODEGEN--\":5:7   */\n      iszero\n      tag_10\n      jumpi\n        /* \"--CODEGEN--\":30:31   */\n      0x0\n        /* \"--CODEGEN--\":27:28   */\n      dup1\n        /* \"--CODEGEN--\":20:32   */\n      revert\n        /* \"--CODEGEN--\":5:7   */\n    tag_10:\n        /* \"Solidity_Notes/Contracts/Notes/04_Enums.sol\":516:608  function isActive() public view returns(bool){\r... */\n      pop\n      tag_11\n      tag_12\n      jump\t// in\n    tag_11:\n      mload(0x40)\n      dup1\n      dup3\n      iszero\n      iszero\n      iszero\n      iszero\n      dup2\n      mstore\n      0x20\n      add\n      swap2\n      pop\n      pop\n      mload(0x40)\n      dup1\n      swap2\n      sub\n      swap1\n      return\n        /* \"Solidity_Notes/Contracts/Notes/04_Enums.sol\":440:508  function deactivate() public{\r... */\n    tag_4:\n      callvalue\n        /* \"--CODEGEN--\":8:17   */\n      dup1\n        /* \"--CODEGEN--\":5:7   */\n      iszero\n      tag_13\n      jumpi\n        /* \"--CODEGEN--\":30:31   */\n      0x0\n        /* \"--CODEGEN--\":27:28   */\n      dup1\n        /* \"--CODEGEN--\":20:32   */\n      revert\n        /* \"--CODEGEN--\":5:7   */\n    tag_13:\n        /* \"Solidity_Notes/Contracts/Notes/04_Enums.sol\":440:508  function deactivate() public{\r... */\n      pop\n      tag_14\n      tag_15\n      jump\t// in\n    tag_14:\n      stop\n        /* \"Solidity_Notes/Contracts/Notes/04_Enums.sol\":198:216  State public state */\n    tag_5:\n      callvalue\n        /* \"--CODEGEN--\":8:17   */\n      dup1\n        /* \"--CODEGEN--\":5:7   */\n      iszero\n      tag_16\n      jumpi\n        /* \"--CODEGEN--\":30:31   */\n      0x0\n        /* \"--CODEGEN--\":27:28   */\n      dup1\n        /* \"--CODEGEN--\":20:32   */\n      revert\n        /* \"--CODEGEN--\":5:7   */\n    tag_16:\n        /* \"Solidity_Notes/Contracts/Notes/04_Enums.sol\":198:216  State public state */\n      pop\n      tag_17\n      tag_18\n      jump\t// in\n    tag_17:\n      mload(0x40)\n      dup1\n      dup3\n      0x2\n      dup2\n      gt\n      iszero\n      tag_19\n      jumpi\n      invalid\n    tag_19:\n      0xff\n      and\n      dup2\n      mstore\n      0x20\n      add\n      swap2\n      pop\n      pop\n      mload(0x40)\n      dup1\n      swap2\n      sub\n      swap1\n      return\n        /* \"Solidity_Notes/Contracts/Notes/04_Enums.sol\":223:247  State public resultState */\n    tag_6:\n      callvalue\n        /* \"--CODEGEN--\":8:17   */\n      dup1\n        /* \"--CODEGEN--\":5:7   */\n      iszero\n      tag_20\n      jumpi\n        /* \"--CODEGEN--\":30:31   */\n      0x0\n        /* \"--CODEGEN--\":27:28   */\n      dup1\n        /* \"--CODEGEN--\":20:32   */\n      revert\n        /* \"--CODEGEN--\":5:7   */\n    tag_20:\n        /* \"Solidity_Notes/Contracts/Notes/04_Enums.sol\":223:247  State public resultState */\n      pop\n      tag_21\n      tag_22\n      jump\t// in\n    tag_21:\n      mload(0x40)\n      dup1\n      dup3\n      0x2\n      dup2\n      gt\n      iszero\n      tag_23\n      jumpi\n      invalid\n    tag_23:\n      0xff\n      and\n      dup2\n      mstore\n      0x20\n      add\n      swap2\n      pop\n      pop\n      mload(0x40)\n      dup1\n      swap2\n      sub\n      swap1\n      return\n        /* \"Solidity_Notes/Contracts/Notes/04_Enums.sol\":367:432  function activate() public{\r... */\n    tag_9:\n        /* \"Solidity_Notes/Contracts/Notes/04_Enums.sol\":412:424  State.Active */\n      0x2\n        /* \"Solidity_Notes/Contracts/Notes/04_Enums.sol\":404:409  state */\n      0x0\n      dup1\n        /* \"Solidity_Notes/Contracts/Notes/04_Enums.sol\":404:424  state = State.Active */\n      0x100\n      exp\n      dup2\n      sload\n      dup2\n      0xff\n      mul\n      not\n      and\n      swap1\n      dup4\n      0x2\n      dup2\n      gt\n      iszero\n      tag_25\n      jumpi\n      invalid\n    tag_25:\n      mul\n      or\n      swap1\n      sstore\n      pop\n        /* \"Solidity_Notes/Contracts/Notes/04_Enums.sol\":367:432  function activate() public{\r... */\n      jump\t// out\n        /* \"Solidity_Notes/Contracts/Notes/04_Enums.sol\":516:608  function isActive() public view returns(bool){\r... */\n    tag_12:\n        /* \"Solidity_Notes/Contracts/Notes/04_Enums.sol\":556:560  bool */\n      0x0\n        /* \"Solidity_Notes/Contracts/Notes/04_Enums.sol\":588:600  State.Active */\n      0x2\n        /* \"Solidity_Notes/Contracts/Notes/04_Enums.sol\":579:600  state == State.Active */\n      dup1\n      dup2\n      gt\n      iszero\n      tag_27\n      jumpi\n      invalid\n    tag_27:\n        /* \"Solidity_Notes/Contracts/Notes/04_Enums.sol\":579:584  state */\n      0x0\n      dup1\n      swap1\n      sload\n      swap1\n      0x100\n      exp\n      swap1\n      div\n      0xff\n      and\n        /* \"Solidity_Notes/Contracts/Notes/04_Enums.sol\":579:600  state == State.Active */\n      0x2\n      dup2\n      gt\n      iszero\n      tag_28\n      jumpi\n      invalid\n    tag_28:\n      eq\n        /* \"Solidity_Notes/Contracts/Notes/04_Enums.sol\":572:600  return state == State.Active */\n      swap1\n      pop\n        /* \"Solidity_Notes/Contracts/Notes/04_Enums.sol\":516:608  function isActive() public view returns(bool){\r... */\n      swap1\n      jump\t// out\n        /* \"Solidity_Notes/Contracts/Notes/04_Enums.sol\":440:508  function deactivate() public{\r... */\n    tag_15:\n        /* \"Solidity_Notes/Contracts/Notes/04_Enums.sol\":487:500  State.Waiting */\n      0x0\n        /* \"Solidity_Notes/Contracts/Notes/04_Enums.sol\":479:484  state */\n      dup1\n      0x0\n        /* \"Solidity_Notes/Contracts/Notes/04_Enums.sol\":479:500  state = State.Waiting */\n      0x100\n      exp\n      dup2\n      sload\n      dup2\n      0xff\n      mul\n      not\n      and\n      swap1\n      dup4\n      0x2\n      dup2\n      gt\n      iszero\n      tag_30\n      jumpi\n      invalid\n    tag_30:\n      mul\n      or\n      swap1\n      sstore\n      pop\n        /* \"Solidity_Notes/Contracts/Notes/04_Enums.sol\":440:508  function deactivate() public{\r... */\n      jump\t// out\n        /* \"Solidity_Notes/Contracts/Notes/04_Enums.sol\":198:216  State public state */\n    tag_18:\n      0x0\n      dup1\n      swap1\n      sload\n      swap1\n      0x100\n      exp\n      swap1\n      div\n      0xff\n      and\n      dup2\n      jump\t// out\n        /* \"Solidity_Notes/Contracts/Notes/04_Enums.sol\":223:247  State public resultState */\n    tag_22:\n      0x0\n      0x1\n      swap1\n      sload\n      swap1\n      0x100\n      exp\n      swap1\n      div\n      0xff\n      and\n      dup2\n      jump\t// out\n\n    auxdata: 0xa165627a7a72305820babe0589767f54f5d3047e6ce7debc23363f9af01205428af0ee4503e75e92910029\n}\n",
				"bytecode": {
					"linkReferences": {},
					"object": "608060405234801561001057600080fd5b5060008060006101000a81548160ff0219169083600281111561002f57fe5b02179055506002600060016101000a81548160ff0219169083600281111561005357fe5b0217905550610204806100676000396000f3fe608060405260043610610067576000357c0100000000000000000000000000000000000000000000000000000000900480630f15f4c01461006c57806322f3e2d41461008357806351b42b00146100b2578063c19d93fb146100c9578063de6428af14610102575b600080fd5b34801561007857600080fd5b5061008161013b565b005b34801561008f57600080fd5b50610098610160565b604051808215151515815260200191505060405180910390f35b3480156100be57600080fd5b506100c761018e565b005b3480156100d557600080fd5b506100de6101b3565b604051808260028111156100ee57fe5b60ff16815260200191505060405180910390f35b34801561010e57600080fd5b506101176101c5565b6040518082600281111561012757fe5b60ff16815260200191505060405180910390f35b60026000806101000a81548160ff0219169083600281111561015957fe5b0217905550565b600060028081111561016e57fe5b6000809054906101000a900460ff16600281111561018857fe5b14905090565b60008060006101000a81548160ff021916908360028111156101ac57fe5b0217905550565b6000809054906101000a900460ff1681565b600060019054906101000a900460ff168156fea165627a7a72305820babe0589767f54f5d3047e6ce7debc23363f9af01205428af0ee4503e75e92910029",
					"opcodes": "PUSH1 0x80 PUSH1 0x40 MSTORE CALLVALUE DUP1 ISZERO PUSH2 0x10 JUMPI PUSH1 0x0 DUP1 REVERT JUMPDEST POP PUSH1 0x0 DUP1 PUSH1 0x0 PUSH2 0x100 EXP DUP2 SLOAD DUP2 PUSH1 0xFF MUL NOT AND SWAP1 DUP4 PUSH1 0x2 DUP2 GT ISZERO PUSH2 0x2F JUMPI INVALID JUMPDEST MUL OR SWAP1 SSTORE POP PUSH1 0x2 PUSH1 0x0 PUSH1 0x1 PUSH2 0x100 EXP DUP2 SLOAD DUP2 PUSH1 0xFF MUL NOT AND SWAP1 DUP4 PUSH1 0x2 DUP2 GT ISZERO PUSH2 0x53 JUMPI INVALID JUMPDEST MUL OR SWAP1 SSTORE POP PUSH2 0x204 DUP1 PUSH2 0x67 PUSH1 0x0 CODECOPY PUSH1 0x0 RETURN INVALID PUSH1 0x80 PUSH1 0x40 MSTORE PUSH1 0x4 CALLDATASIZE LT PUSH2 0x67 JUMPI PUSH1 0x0 CALLDATALOAD PUSH29 0x100000000000000000000000000000000000000000000000000000000 SWAP1 DIV DUP1 PUSH4 0xF15F4C0 EQ PUSH2 0x6C JUMPI DUP1 PUSH4 0x22F3E2D4 EQ PUSH2 0x83 JUMPI DUP1 PUSH4 0x51B42B00 EQ PUSH2 0xB2 JUMPI DUP1 PUSH4 0xC19D93FB EQ PUSH2 0xC9 JUMPI DUP1 PUSH4 0xDE6428AF EQ PUSH2 0x102 JUMPI JUMPDEST PUSH1 0x0 DUP1 REVERT JUMPDEST CALLVALUE DUP1 ISZERO PUSH2 0x78 JUMPI PUSH1 0x0 DUP1 REVERT JUMPDEST POP PUSH2 0x81 PUSH2 0x13B JUMP JUMPDEST STOP JUMPDEST CALLVALUE DUP1 ISZERO PUSH2 0x8F JUMPI PUSH1 0x0 DUP1 REVERT JUMPDEST POP PUSH2 0x98 PUSH2 0x160 JUMP JUMPDEST PUSH1 0x40 MLOAD DUP1 DUP3 ISZERO ISZERO ISZERO ISZERO DUP2 MSTORE PUSH1 0x20 ADD SWAP2 POP POP PUSH1 0x40 MLOAD DUP1 SWAP2 SUB SWAP1 RETURN JUMPDEST CALLVALUE DUP1 ISZERO PUSH2 0xBE JUMPI PUSH1 0x0 DUP1 REVERT JUMPDEST POP PUSH2 0xC7 PUSH2 0x18E JUMP JUMPDEST STOP JUMPDEST CALLVALUE DUP1 ISZERO PUSH2 0xD5 JUMPI PUSH1 0x0 DUP1 REVERT JUMPDEST POP PUSH2 0xDE PUSH2 0x1B3 JUMP JUMPDEST PUSH1 0x40 MLOAD DUP1 DUP3 PUSH1 0x2 DUP2 GT ISZERO PUSH2 0xEE JUMPI INVALID JUMPDEST PUSH1 0xFF AND DUP2 MSTORE PUSH1 0x20 ADD SWAP2 POP POP PUSH1 0x40 MLOAD DUP1 SWAP2 SUB SWAP1 RETURN JUMPDEST CALLVALUE DUP1 ISZERO PUSH2 0x10E JUMPI PUSH1 0x0 DUP1 REVERT JUMPDEST POP PUSH2 0x117 PUSH2 0x1C5 JUMP JUMPDEST PUSH1 0x40 MLOAD DUP1 DUP3 PUSH1 0x2 DUP2 GT ISZERO PUSH2 0x127 JUMPI INVALID JUMPDEST PUSH1 0xFF AND DUP2 MSTORE PUSH1 0x20 ADD SWAP2 POP POP PUSH1 0x40 MLOAD DUP1 SWAP2 SUB SWAP1 RETURN JUMPDEST PUSH1 0x2 PUSH1 0x0 DUP1 PUSH2 0x100 EXP DUP2 SLOAD DUP2 PUSH1 0xFF MUL NOT AND SWAP1 DUP4 PUSH1 0x2 DUP2 GT ISZERO PUSH2 0x159 JUMPI INVALID JUMPDEST MUL OR SWAP1 SSTORE POP JUMP JUMPDEST PUSH1 0x0 PUSH1 0x2 DUP1 DUP2 GT ISZERO PUSH2 0x16E JUMPI INVALID JUMPDEST PUSH1 0x0 DUP1 SWAP1 SLOAD SWAP1 PUSH2 0x100 EXP SWAP1 DIV PUSH1 0xFF AND PUSH1 0x2 DUP2 GT ISZERO PUSH2 0x188 JUMPI INVALID JUMPDEST EQ SWAP1 POP SWAP1 JUMP JUMPDEST PUSH1 0x0 DUP1 PUSH1 0x0 PUSH2 0x100 EXP DUP2 SLOAD DUP2 PUSH1 0xFF MUL NOT AND SWAP1 DUP4 PUSH1 0x2 DUP2 GT ISZERO PUSH2 0x1AC JUMPI INVALID JUMPDEST MUL OR SWAP1 SSTORE POP JUMP JUMPDEST PUSH1 0x0 DUP1 SWAP1 SLOAD SWAP1 PUSH2 0x100 EXP SWAP1 DIV PUSH1 0xFF AND DUP2 JUMP JUMPDEST PUSH1 0x0 PUSH1 0x1 SWAP1 SLOAD SWAP1 PUSH2 0x100 EXP SWAP1 DIV PUSH1 0xFF AND DUP2 JUMP INVALID LOG1 PUSH6 0x627A7A723058 KECCAK256 0xba 0xbe SDIV DUP10 PUSH23 0x7F54F5D3047E6CE7DEBC23363F9AF01205428AF0EE4503 0xe7 0x5e SWAP3 SWAP2 STOP 0x29 "
				},
				"gasEstimates": {
					"creation": {
						"codeDepositCost": "103200",
						"executionCost": "40777",
						"totalCost": "143977"
					},
					"external": {
						"activate()": "20414",
						"deactivate()": "20458",
						"isActive()": "524",
						"resultState()": "594",
						"state()": "522"
					}
				},
				"methodIdentifiers": {
					"activate()": "0f15f4c0",
					"deactivate()": "51b42b00",
					"isActive()": "22f3e2d4",
					"resultState()": "de6428af",
					"state()": "c19d93fb"
				}
			},
			"userdoc": {
				"methods": {}
			}
		}
	}
}